{"abi":[{"type":"receive","stateMutability":"payable"},{"type":"function","name":"pay","inputs":[{"name":"paymentLinkId","type":"bytes32","internalType":"bytes32"},{"name":"recipient","type":"address","internalType":"address"},{"name":"token","type":"address","internalType":"address"},{"name":"amount","type":"uint256","internalType":"uint256"}],"outputs":[],"stateMutability":"nonpayable"},{"type":"function","name":"payNative","inputs":[{"name":"paymentLinkId","type":"bytes32","internalType":"bytes32"},{"name":"recipient","type":"address","internalType":"address payable"}],"outputs":[],"stateMutability":"payable"},{"type":"event","name":"PaymentProcessed","inputs":[{"name":"paymentLinkId","type":"bytes32","indexed":true,"internalType":"bytes32"},{"name":"payer","type":"address","indexed":true,"internalType":"address"},{"name":"recipient","type":"address","indexed":true,"internalType":"address"},{"name":"token","type":"address","indexed":false,"internalType":"address"},{"name":"amount","type":"uint256","indexed":false,"internalType":"uint256"},{"name":"timestamp","type":"uint256","indexed":false,"internalType":"uint256"}],"anonymous":false}],"bytecode":{"object":"0x6080604052348015600e575f5ffd5b5061093b8061001c5f395ff3fe60806040526004361061002c575f3560e01c806376bbf42514610037578063f775f5a91461005f57610033565b3661003357005b5f5ffd5b348015610042575f5ffd5b5061005d600480360381019061005891906104e7565b61007b565b005b61007960048036038101906100749190610586565b61025c565b005b5f73ffffffffffffffffffffffffffffffffffffffff168373ffffffffffffffffffffffffffffffffffffffff16036100e9576040517f08c379a00000000000000000000000000000000000000000000000000000000081526004016100e09061061e565b60405180910390fd5b5f811161012b576040517f08c379a000000000000000000000000000000000000000000000000000000000815260040161012290610686565b60405180910390fd5b5f8273ffffffffffffffffffffffffffffffffffffffff166323b872dd3386856040518463ffffffff1660e01b8152600401610169939291906106c2565b6020604051808303815f875af1158015610185573d5f5f3e3d5ffd5b505050506040513d601f19601f820116820180604052508101906101a9919061072c565b9050806101eb576040517f08c379a00000000000000000000000000000000000000000000000000000000081526004016101e2906107a1565b60405180910390fd5b8373ffffffffffffffffffffffffffffffffffffffff163373ffffffffffffffffffffffffffffffffffffffff16867f9738675299c14110f79fb7cba205a82158820ff9ff4f05f49fd57439a1bf171486864260405161024d939291906107bf565b60405180910390a45050505050565b5f73ffffffffffffffffffffffffffffffffffffffff168173ffffffffffffffffffffffffffffffffffffffff16036102ca576040517f08c379a00000000000000000000000000000000000000000000000000000000081526004016102c19061061e565b60405180910390fd5b5f341161030c576040517f08c379a00000000000000000000000000000000000000000000000000000000081526004016103039061083e565b60405180910390fd5b5f8173ffffffffffffffffffffffffffffffffffffffff163460405161033190610889565b5f6040518083038185875af1925050503d805f811461036b576040519150601f19603f3d011682016040523d82523d5f602084013e610370565b606091505b50509050806103b4576040517f08c379a00000000000000000000000000000000000000000000000000000000081526004016103ab906108e7565b60405180910390fd5b8173ffffffffffffffffffffffffffffffffffffffff163373ffffffffffffffffffffffffffffffffffffffff16847f9738675299c14110f79fb7cba205a82158820ff9ff4f05f49fd57439a1bf17145f3442604051610416939291906107bf565b60405180910390a4505050565b5f5ffd5b5f819050919050565b61043981610427565b8114610443575f5ffd5b50565b5f8135905061045481610430565b92915050565b5f73ffffffffffffffffffffffffffffffffffffffff82169050919050565b5f6104838261045a565b9050919050565b61049381610479565b811461049d575f5ffd5b50565b5f813590506104ae8161048a565b92915050565b5f819050919050565b6104c6816104b4565b81146104d0575f5ffd5b50565b5f813590506104e1816104bd565b92915050565b5f5f5f5f608085870312156104ff576104fe610423565b5b5f61050c87828801610446565b945050602061051d878288016104a0565b935050604061052e878288016104a0565b925050606061053f878288016104d3565b91505092959194509250565b5f6105558261045a565b9050919050565b6105658161054b565b811461056f575f5ffd5b50565b5f813590506105808161055c565b92915050565b5f5f6040838503121561059c5761059b610423565b5b5f6105a985828601610446565b92505060206105ba85828601610572565b9150509250929050565b5f82825260208201905092915050565b7f496e76616c696420726563697069656e740000000000000000000000000000005f82015250565b5f6106086011836105c4565b9150610613826105d4565b602082019050919050565b5f6020820190508181035f830152610635816105fc565b9050919050565b7f416d6f756e74206d757374206265203e203000000000000000000000000000005f82015250565b5f6106706012836105c4565b915061067b8261063c565b602082019050919050565b5f6020820190508181035f83015261069d81610664565b9050919050565b6106ad81610479565b82525050565b6106bc816104b4565b82525050565b5f6060820190506106d55f8301866106a4565b6106e260208301856106a4565b6106ef60408301846106b3565b949350505050565b5f8115159050919050565b61070b816106f7565b8114610715575f5ffd5b50565b5f8151905061072681610702565b92915050565b5f6020828403121561074157610740610423565b5b5f61074e84828501610718565b91505092915050565b7f4552433230207472616e73666572206661696c656400000000000000000000005f82015250565b5f61078b6015836105c4565b915061079682610757565b602082019050919050565b5f6020820190508181035f8301526107b88161077f565b9050919050565b5f6060820190506107d25f8301866106a4565b6107df60208301856106b3565b6107ec60408301846106b3565b949350505050565b7f4d7573742073656e642048534b000000000000000000000000000000000000005f82015250565b5f610828600d836105c4565b9150610833826107f4565b602082019050919050565b5f6020820190508181035f8301526108558161081c565b9050919050565b5f81905092915050565b50565b5f6108745f8361085c565b915061087f82610866565b5f82019050919050565b5f61089382610869565b9150819050919050565b7f48534b207472616e73666572206661696c6564000000000000000000000000005f82015250565b5f6108d16013836105c4565b91506108dc8261089d565b602082019050919050565b5f6020820190508181035f8301526108fe816108c5565b905091905056fea2646970667358221220109b5a29945acaa77eea97a274b06a2a6a14279f118334024ce4aff569b53ebd64736f6c634300081e0033","linkReferences":{}},"methodIdentifiers":{"pay(bytes32,address,address,uint256)":"76bbf425","payNative(bytes32,address)":"f775f5a9"},"id":0}